{
  "_format": "hh-sol-artifact-1",
  "contractName": "RWAFund",
  "sourceName": "contracts/RWAFund.sol",
  "abi": [
    {
      "inputs": [
        {
          "internalType": "address",
          "name": "_usdc",
          "type": "address"
        },
        {
          "internalType": "address",
          "name": "_manager",
          "type": "address"
        },
        {
          "internalType": "address",
          "name": "_oracle",
          "type": "address"
        }
      ],
      "stateMutability": "nonpayable",
      "type": "constructor"
    },
    {
      "inputs": [],
      "name": "AccessControlBadConfirmation",
      "type": "error"
    },
    {
      "inputs": [
        {
          "internalType": "address",
          "name": "account",
          "type": "address"
        },
        {
          "internalType": "bytes32",
          "name": "neededRole",
          "type": "bytes32"
        }
      ],
      "name": "AccessControlUnauthorizedAccount",
      "type": "error"
    },
    {
      "inputs": [
        {
          "internalType": "address",
          "name": "spender",
          "type": "address"
        },
        {
          "internalType": "uint256",
          "name": "allowance",
          "type": "uint256"
        },
        {
          "internalType": "uint256",
          "name": "needed",
          "type": "uint256"
        }
      ],
      "name": "ERC20InsufficientAllowance",
      "type": "error"
    },
    {
      "inputs": [
        {
          "internalType": "address",
          "name": "sender",
          "type": "address"
        },
        {
          "internalType": "uint256",
          "name": "balance",
          "type": "uint256"
        },
        {
          "internalType": "uint256",
          "name": "needed",
          "type": "uint256"
        }
      ],
      "name": "ERC20InsufficientBalance",
      "type": "error"
    },
    {
      "inputs": [
        {
          "internalType": "address",
          "name": "approver",
          "type": "address"
        }
      ],
      "name": "ERC20InvalidApprover",
      "type": "error"
    },
    {
      "inputs": [
        {
          "internalType": "address",
          "name": "receiver",
          "type": "address"
        }
      ],
      "name": "ERC20InvalidReceiver",
      "type": "error"
    },
    {
      "inputs": [
        {
          "internalType": "address",
          "name": "sender",
          "type": "address"
        }
      ],
      "name": "ERC20InvalidSender",
      "type": "error"
    },
    {
      "inputs": [
        {
          "internalType": "address",
          "name": "spender",
          "type": "address"
        }
      ],
      "name": "ERC20InvalidSpender",
      "type": "error"
    },
    {
      "inputs": [],
      "name": "EnforcedPause",
      "type": "error"
    },
    {
      "inputs": [],
      "name": "ExpectedPause",
      "type": "error"
    },
    {
      "inputs": [],
      "name": "ReentrancyGuardReentrantCall",
      "type": "error"
    },
    {
      "inputs": [
        {
          "internalType": "address",
          "name": "token",
          "type": "address"
        }
      ],
      "name": "SafeERC20FailedOperation",
      "type": "error"
    },
    {
      "anonymous": false,
      "inputs": [
        {
          "indexed": true,
          "internalType": "address",
          "name": "owner",
          "type": "address"
        },
        {
          "indexed": true,
          "internalType": "address",
          "name": "spender",
          "type": "address"
        },
        {
          "indexed": false,
          "internalType": "uint256",
          "name": "value",
          "type": "uint256"
        }
      ],
      "name": "Approval",
      "type": "event"
    },
    {
      "anonymous": false,
      "inputs": [
        {
          "indexed": true,
          "internalType": "address",
          "name": "to",
          "type": "address"
        },
        {
          "indexed": false,
          "internalType": "uint256",
          "name": "amount",
          "type": "uint256"
        }
      ],
      "name": "FeesCollected",
      "type": "event"
    },
    {
      "anonymous": false,
      "inputs": [
        {
          "indexed": false,
          "internalType": "uint256",
          "name": "subscriptionFeeBps",
          "type": "uint256"
        },
        {
          "indexed": false,
          "internalType": "uint256",
          "name": "redemptionFeeBps",
          "type": "uint256"
        }
      ],
      "name": "FeesUpdated",
      "type": "event"
    },
    {
      "anonymous": false,
      "inputs": [
        {
          "indexed": true,
          "internalType": "uint256",
          "name": "newNAV",
          "type": "uint256"
        },
        {
          "indexed": false,
          "internalType": "uint256",
          "name": "totalAUM",
          "type": "uint256"
        },
        {
          "indexed": false,
          "internalType": "uint256",
          "name": "timestamp",
          "type": "uint256"
        }
      ],
      "name": "NAVUpdated",
      "type": "event"
    },
    {
      "anonymous": false,
      "inputs": [
        {
          "indexed": false,
          "internalType": "address",
          "name": "account",
          "type": "address"
        }
      ],
      "name": "Paused",
      "type": "event"
    },
    {
      "anonymous": false,
      "inputs": [
        {
          "indexed": false,
          "internalType": "string[]",
          "name": "assets",
          "type": "string[]"
        },
        {
          "indexed": false,
          "internalType": "uint256[]",
          "name": "newWeights",
          "type": "uint256[]"
        },
        {
          "indexed": false,
          "internalType": "uint256",
          "name": "timestamp",
          "type": "uint256"
        }
      ],
      "name": "Rebalanced",
      "type": "event"
    },
    {
      "anonymous": false,
      "inputs": [
        {
          "indexed": true,
          "internalType": "address",
          "name": "investor",
          "type": "address"
        },
        {
          "indexed": false,
          "internalType": "uint256",
          "name": "tokenAmount",
          "type": "uint256"
        },
        {
          "indexed": false,
          "internalType": "uint256",
          "name": "usdcReturned",
          "type": "uint256"
        },
        {
          "indexed": false,
          "internalType": "uint256",
          "name": "nav",
          "type": "uint256"
        }
      ],
      "name": "Redeemed",
      "type": "event"
    },
    {
      "anonymous": false,
      "inputs": [
        {
          "indexed": true,
          "internalType": "bytes32",
          "name": "role",
          "type": "bytes32"
        },
        {
          "indexed": true,
          "internalType": "bytes32",
          "name": "previousAdminRole",
          "type": "bytes32"
        },
        {
          "indexed": true,
          "internalType": "bytes32",
          "name": "newAdminRole",
          "type": "bytes32"
        }
      ],
      "name": "RoleAdminChanged",
      "type": "event"
    },
    {
      "anonymous": false,
      "inputs": [
        {
          "indexed": true,
          "internalType": "bytes32",
          "name": "role",
          "type": "bytes32"
        },
        {
          "indexed": true,
          "internalType": "address",
          "name": "account",
          "type": "address"
        },
        {
          "indexed": true,
          "internalType": "address",
          "name": "sender",
          "type": "address"
        }
      ],
      "name": "RoleGranted",
      "type": "event"
    },
    {
      "anonymous": false,
      "inputs": [
        {
          "indexed": true,
          "internalType": "bytes32",
          "name": "role",
          "type": "bytes32"
        },
        {
          "indexed": true,
          "internalType": "address",
          "name": "account",
          "type": "address"
        },
        {
          "indexed": true,
          "internalType": "address",
          "name": "sender",
          "type": "address"
        }
      ],
      "name": "RoleRevoked",
      "type": "event"
    },
    {
      "anonymous": false,
      "inputs": [
        {
          "indexed": true,
          "internalType": "address",
          "name": "investor",
          "type": "address"
        },
        {
          "indexed": false,
          "internalType": "uint256",
          "name": "usdcAmount",
          "type": "uint256"
        },
        {
          "indexed": false,
          "internalType": "uint256",
          "name": "tokensIssued",
          "type": "uint256"
        },
        {
          "indexed": false,
          "internalType": "uint256",
          "name": "nav",
          "type": "uint256"
        }
      ],
      "name": "Subscribed",
      "type": "event"
    },
    {
      "anonymous": false,
      "inputs": [
        {
          "indexed": true,
          "internalType": "address",
          "name": "from",
          "type": "address"
        },
        {
          "indexed": true,
          "internalType": "address",
          "name": "to",
          "type": "address"
        },
        {
          "indexed": false,
          "internalType": "uint256",
          "name": "value",
          "type": "uint256"
        }
      ],
      "name": "Transfer",
      "type": "event"
    },
    {
      "anonymous": false,
      "inputs": [
        {
          "indexed": false,
          "internalType": "address",
          "name": "account",
          "type": "address"
        }
      ],
      "name": "Unpaused",
      "type": "event"
    },
    {
      "inputs": [],
      "name": "DEFAULT_ADMIN_ROLE",
      "outputs": [
        {
          "internalType": "bytes32",
          "name": "",
          "type": "bytes32"
        }
      ],
      "stateMutability": "view",
      "type": "function"
    },
    {
      "inputs": [],
      "name": "INITIAL_NAV",
      "outputs": [
        {
          "internalType": "uint256",
          "name": "",
          "type": "uint256"
        }
      ],
      "stateMutability": "view",
      "type": "function"
    },
    {
      "inputs": [],
      "name": "MANAGER_ROLE",
      "outputs": [
        {
          "internalType": "bytes32",
          "name": "",
          "type": "bytes32"
        }
      ],
      "stateMutability": "view",
      "type": "function"
    },
    {
      "inputs": [],
      "name": "MAX_FEE_BPS",
      "outputs": [
        {
          "internalType": "uint256",
          "name": "",
          "type": "uint256"
        }
      ],
      "stateMutability": "view",
      "type": "function"
    },
    {
      "inputs": [],
      "name": "MIN_SUBSCRIPTION",
      "outputs": [
        {
          "internalType": "uint256",
          "name": "",
          "type": "uint256"
        }
      ],
      "stateMutability": "view",
      "type": "function"
    },
    {
      "inputs": [],
      "name": "ORACLE_ROLE",
      "outputs": [
        {
          "internalType": "bytes32",
          "name": "",
          "type": "bytes32"
        }
      ],
      "stateMutability": "view",
      "type": "function"
    },
    {
      "inputs": [
        {
          "internalType": "address",
          "name": "owner",
          "type": "address"
        },
        {
          "internalType": "address",
          "name": "spender",
          "type": "address"
        }
      ],
      "name": "allowance",
      "outputs": [
        {
          "internalType": "uint256",
          "name": "",
          "type": "uint256"
        }
      ],
      "stateMutability": "view",
      "type": "function"
    },
    {
      "inputs": [
        {
          "internalType": "address",
          "name": "",
          "type": "address"
        },
        {
          "internalType": "uint256",
          "name": "",
          "type": "uint256"
        }
      ],
      "name": "approve",
      "outputs": [
        {
          "internalType": "bool",
          "name": "",
          "type": "bool"
        }
      ],
      "stateMutability": "pure",
      "type": "function"
    },
    {
      "inputs": [
        {
          "internalType": "address",
          "name": "account",
          "type": "address"
        }
      ],
      "name": "balanceOf",
      "outputs": [
        {
          "internalType": "uint256",
          "name": "",
          "type": "uint256"
        }
      ],
      "stateMutability": "view",
      "type": "function"
    },
    {
      "inputs": [
        {
          "internalType": "address",
          "name": "to",
          "type": "address"
        }
      ],
      "name": "collectFees",
      "outputs": [],
      "stateMutability": "nonpayable",
      "type": "function"
    },
    {
      "inputs": [],
      "name": "decimals",
      "outputs": [
        {
          "internalType": "uint8",
          "name": "",
          "type": "uint8"
        }
      ],
      "stateMutability": "view",
      "type": "function"
    },
    {
      "inputs": [],
      "name": "getAssets",
      "outputs": [
        {
          "internalType": "string[]",
          "name": "",
          "type": "string[]"
        }
      ],
      "stateMutability": "view",
      "type": "function"
    },
    {
      "inputs": [],
      "name": "getFundInfo",
      "outputs": [
        {
          "internalType": "uint256",
          "name": "_navPerToken",
          "type": "uint256"
        },
        {
          "internalType": "uint256",
          "name": "_totalSupply",
          "type": "uint256"
        },
        {
          "internalType": "uint256",
          "name": "_totalAUM",
          "type": "uint256"
        },
        {
          "internalType": "uint256",
          "name": "_lastNavUpdate",
          "type": "uint256"
        },
        {
          "internalType": "uint256",
          "name": "_lastRebalance",
          "type": "uint256"
        },
        {
          "internalType": "uint256",
          "name": "_usdcBalance",
          "type": "uint256"
        }
      ],
      "stateMutability": "view",
      "type": "function"
    },
    {
      "inputs": [
        {
          "internalType": "bytes32",
          "name": "role",
          "type": "bytes32"
        }
      ],
      "name": "getRoleAdmin",
      "outputs": [
        {
          "internalType": "bytes32",
          "name": "",
          "type": "bytes32"
        }
      ],
      "stateMutability": "view",
      "type": "function"
    },
    {
      "inputs": [
        {
          "internalType": "bytes32",
          "name": "role",
          "type": "bytes32"
        },
        {
          "internalType": "address",
          "name": "account",
          "type": "address"
        }
      ],
      "name": "grantRole",
      "outputs": [],
      "stateMutability": "nonpayable",
      "type": "function"
    },
    {
      "inputs": [
        {
          "internalType": "bytes32",
          "name": "role",
          "type": "bytes32"
        },
        {
          "internalType": "address",
          "name": "account",
          "type": "address"
        }
      ],
      "name": "hasRole",
      "outputs": [
        {
          "internalType": "bool",
          "name": "",
          "type": "bool"
        }
      ],
      "stateMutability": "view",
      "type": "function"
    },
    {
      "inputs": [],
      "name": "lastNavUpdate",
      "outputs": [
        {
          "internalType": "uint256",
          "name": "",
          "type": "uint256"
        }
      ],
      "stateMutability": "view",
      "type": "function"
    },
    {
      "inputs": [],
      "name": "lastRebalance",
      "outputs": [
        {
          "internalType": "uint256",
          "name": "",
          "type": "uint256"
        }
      ],
      "stateMutability": "view",
      "type": "function"
    },
    {
      "inputs": [],
      "name": "name",
      "outputs": [
        {
          "internalType": "string",
          "name": "",
          "type": "string"
        }
      ],
      "stateMutability": "view",
      "type": "function"
    },
    {
      "inputs": [],
      "name": "navPerToken",
      "outputs": [
        {
          "internalType": "uint256",
          "name": "",
          "type": "uint256"
        }
      ],
      "stateMutability": "view",
      "type": "function"
    },
    {
      "inputs": [],
      "name": "pause",
      "outputs": [],
      "stateMutability": "nonpayable",
      "type": "function"
    },
    {
      "inputs": [],
      "name": "paused",
      "outputs": [
        {
          "internalType": "bool",
          "name": "",
          "type": "bool"
        }
      ],
      "stateMutability": "view",
      "type": "function"
    },
    {
      "inputs": [
        {
          "internalType": "uint256",
          "name": "tokenAmount",
          "type": "uint256"
        }
      ],
      "name": "previewRedeem",
      "outputs": [
        {
          "internalType": "uint256",
          "name": "usdcOut",
          "type": "uint256"
        },
        {
          "internalType": "uint256",
          "name": "feeCharged",
          "type": "uint256"
        }
      ],
      "stateMutability": "view",
      "type": "function"
    },
    {
      "inputs": [
        {
          "internalType": "uint256",
          "name": "usdcAmount",
          "type": "uint256"
        }
      ],
      "name": "previewSubscribe",
      "outputs": [
        {
          "internalType": "uint256",
          "name": "tokensOut",
          "type": "uint256"
        },
        {
          "internalType": "uint256",
          "name": "feeCharged",
          "type": "uint256"
        }
      ],
      "stateMutability": "view",
      "type": "function"
    },
    {
      "inputs": [
        {
          "internalType": "uint256",
          "name": "tokenAmount",
          "type": "uint256"
        }
      ],
      "name": "redeem",
      "outputs": [],
      "stateMutability": "nonpayable",
      "type": "function"
    },
    {
      "inputs": [],
      "name": "redemptionFeeBps",
      "outputs": [
        {
          "internalType": "uint256",
          "name": "",
          "type": "uint256"
        }
      ],
      "stateMutability": "view",
      "type": "function"
    },
    {
      "inputs": [
        {
          "internalType": "bytes32",
          "name": "role",
          "type": "bytes32"
        },
        {
          "internalType": "address",
          "name": "callerConfirmation",
          "type": "address"
        }
      ],
      "name": "renounceRole",
      "outputs": [],
      "stateMutability": "nonpayable",
      "type": "function"
    },
    {
      "inputs": [
        {
          "internalType": "bytes32",
          "name": "role",
          "type": "bytes32"
        },
        {
          "internalType": "address",
          "name": "account",
          "type": "address"
        }
      ],
      "name": "revokeRole",
      "outputs": [],
      "stateMutability": "nonpayable",
      "type": "function"
    },
    {
      "inputs": [
        {
          "internalType": "uint256",
          "name": "_subFee",
          "type": "uint256"
        },
        {
          "internalType": "uint256",
          "name": "_redFee",
          "type": "uint256"
        }
      ],
      "name": "setFees",
      "outputs": [],
      "stateMutability": "nonpayable",
      "type": "function"
    },
    {
      "inputs": [
        {
          "internalType": "uint256",
          "name": "usdcAmount",
          "type": "uint256"
        }
      ],
      "name": "subscribe",
      "outputs": [],
      "stateMutability": "nonpayable",
      "type": "function"
    },
    {
      "inputs": [],
      "name": "subscriptionFeeBps",
      "outputs": [
        {
          "internalType": "uint256",
          "name": "",
          "type": "uint256"
        }
      ],
      "stateMutability": "view",
      "type": "function"
    },
    {
      "inputs": [
        {
          "internalType": "bytes4",
          "name": "interfaceId",
          "type": "bytes4"
        }
      ],
      "name": "supportsInterface",
      "outputs": [
        {
          "internalType": "bool",
          "name": "",
          "type": "bool"
        }
      ],
      "stateMutability": "view",
      "type": "function"
    },
    {
      "inputs": [],
      "name": "symbol",
      "outputs": [
        {
          "internalType": "string",
          "name": "",
          "type": "string"
        }
      ],
      "stateMutability": "view",
      "type": "function"
    },
    {
      "inputs": [],
      "name": "totalAUM",
      "outputs": [
        {
          "internalType": "uint256",
          "name": "",
          "type": "uint256"
        }
      ],
      "stateMutability": "view",
      "type": "function"
    },
    {
      "inputs": [],
      "name": "totalSupply",
      "outputs": [
        {
          "internalType": "uint256",
          "name": "",
          "type": "uint256"
        }
      ],
      "stateMutability": "view",
      "type": "function"
    },
    {
      "inputs": [
        {
          "internalType": "address",
          "name": "",
          "type": "address"
        },
        {
          "internalType": "uint256",
          "name": "",
          "type": "uint256"
        }
      ],
      "name": "transfer",
      "outputs": [
        {
          "internalType": "bool",
          "name": "",
          "type": "bool"
        }
      ],
      "stateMutability": "pure",
      "type": "function"
    },
    {
      "inputs": [
        {
          "internalType": "address",
          "name": "",
          "type": "address"
        },
        {
          "internalType": "address",
          "name": "",
          "type": "address"
        },
        {
          "internalType": "uint256",
          "name": "",
          "type": "uint256"
        }
      ],
      "name": "transferFrom",
      "outputs": [
        {
          "internalType": "bool",
          "name": "",
          "type": "bool"
        }
      ],
      "stateMutability": "pure",
      "type": "function"
    },
    {
      "inputs": [],
      "name": "unpause",
      "outputs": [],
      "stateMutability": "nonpayable",
      "type": "function"
    },
    {
      "inputs": [
        {
          "internalType": "uint256",
          "name": "_newNAV",
          "type": "uint256"
        },
        {
          "internalType": "uint256",
          "name": "_totalAUM",
          "type": "uint256"
        }
      ],
      "name": "updateNAV",
      "outputs": [],
      "stateMutability": "nonpayable",
      "type": "function"
    },
    {
      "inputs": [
        {
          "internalType": "string[]",
          "name": "_assetList",
          "type": "string[]"
        },
        {
          "internalType": "uint256[]",
          "name": "_weights",
          "type": "uint256[]"
        }
      ],
      "name": "updateRebalance",
      "outputs": [],
      "stateMutability": "nonpayable",
      "type": "function"
    },
    {
      "inputs": [],
      "name": "usdc",
      "outputs": [
        {
          "internalType": "contract IERC20",
          "name": "",
          "type": "address"
        }
      ],
      "stateMutability": "view",
      "type": "function"
    },
    {
      "inputs": [
        {
          "internalType": "string",
          "name": "",
          "type": "string"
        }
      ],
      "name": "weights",
      "outputs": [
        {
          "internalType": "uint256",
          "name": "",
          "type": "uint256"
        }
      ],
      "stateMutability": "view",
      "type": "function"
    }
  ],
  "bytecode": "0x60a06040526032600b556032600c553480156200001b57600080fd5b5060405162002680380380620026808339810160408190526200003e9162000311565b60405180604001604052806009815260200168135051cdc8119d5b9960ba1b81525060405180604001604052806003815260200162269ba360e91b81525081600390816200008d919062000402565b5060046200009c828262000402565b5050506001620000b8620000b56200021d60201b60201c565b90565b556001600160a01b038316620001045760405162461bcd60e51b815260206004820152600c60248201526b496e76616c6964205553444360a01b60448201526064015b60405180910390fd5b6001600160a01b0382166200014e5760405162461bcd60e51b815260206004820152600f60248201526e24b73b30b634b21036b0b730b3b2b960891b6044820152606401620000fb565b6001600160a01b038116620001975760405162461bcd60e51b815260206004820152600e60248201526d496e76616c6964206f7261636c6560901b6044820152606401620000fb565b6001600160a01b0383166080526305f5e100600755620001b960008362000241565b50620001e67f241ecf16d79d0f8dbfb92cbc07fe17840425976cf0667f022fe9877caa831b088362000241565b50620002137f68e79a7bf1e0bc45d0a330c573bc367f9cf464fd326078812f301165fbda4ef18262000241565b50505050620004ce565b7f9b779b17422d0df92223018b32b4d1fa46e071723d6817e2486d003becc55f0090565b60008281526005602090815260408083206001600160a01b038516845290915281205460ff16620002ea5760008381526005602090815260408083206001600160a01b03861684529091529020805460ff19166001179055620002a13390565b6001600160a01b0316826001600160a01b0316847f2f8788117e7eff1d82e926ec794901d17c78024a50270940304540a733656f0d60405160405180910390a4506001620002ee565b5060005b92915050565b80516001600160a01b03811681146200030c57600080fd5b919050565b6000806000606084860312156200032757600080fd5b6200033284620002f4565b92506200034260208501620002f4565b91506200035260408501620002f4565b90509250925092565b634e487b7160e01b600052604160045260246000fd5b600181811c908216806200038657607f821691505b602082108103620003a757634e487b7160e01b600052602260045260246000fd5b50919050565b601f821115620003fd576000816000526020600020601f850160051c81016020861015620003d85750805b601f850160051c820191505b81811015620003f957828155600101620003e4565b5050505b505050565b81516001600160401b038111156200041e576200041e6200035b565b62000436816200042f845462000371565b84620003ad565b602080601f8311600181146200046e5760008415620004555750858301515b600019600386901b1c1916600185901b178555620003f9565b600085815260208120601f198616915b828110156200049f578886015182559484019460019091019084016200047e565b5085821015620004be5787850151600019600388901b60f8161c191681555b5050505050600190811b01905550565b60805161216c62000514600039600081816103e9015281816108da01528181610c3801528181610d01015281816111cf015281816112980152611336015261216c6000f3fe608060405234801561001057600080fd5b506004361061025e5760003560e01c806370a0823111610146578063c1c73088116100c3578063d68002f311610087578063d68002f31461052d578063db006a7514610536578063dd62ed3e14610549578063de5f654c14610582578063ec2336841461058b578063ec87621c146105c057600080fd5b8063c1c73088146104e2578063cc2254cc146104eb578063d0e82bd5146104fe578063d547741f14610511578063d55be8c61461052457600080fd5b8063a036f25b1161010a578063a036f25b146104b5578063a217fddf146104be578063a480ca79146104c6578063a9059cbb14610307578063b808e343146104d957600080fd5b806370a082311461045e57806373bb610a146104875780638456cb591461049257806391d148541461049a57806395d89b41146104ad57600080fd5b806323b872dd116101df57806337bb563f116101a357806337bb563f146103b95780633e413bee146103e45780633f4ba83a146104235780634cdad5061461042b5780635c975abb1461043e57806367e4ac2c1461044957600080fd5b806323b872dd14610353578063248a9ca3146103615780632f2ff15d14610384578063313ce5671461039757806336568abe146103a657600080fd5b8063095ea7b311610226578063095ea7b3146103075780630b78f9c01461031a5780630f574ba71461032f578063106b9ca11461034257806318160ddd1461034b57600080fd5b806301ffc9a71461026357806302b6baac1461028b57806306fdde03146102a357806307e2cea5146102b8578063086c7bfd146102df575b600080fd5b6102766102713660046119aa565b6105d5565b60405190151581526020015b60405180910390f35b6102956298968081565b604051908152602001610282565b6102ab61060c565b6040516102829190611a21565b6102957f68e79a7bf1e0bc45d0a330c573bc367f9cf464fd326078812f301165fbda4ef181565b6102f26102ed366004611a34565b61069e565b60408051928352602083019190915201610282565b610276610315366004611a69565b6106f4565b61032d610328366004611a93565b61073d565b005b61032d61033d366004611a34565b6107ec565b610295600a5481565b600254610295565b610276610315366004611ab5565b61029561036f366004611a34565b60009081526005602052604090206001015490565b61032d610392366004611af1565b610983565b60405160128152602001610282565b61032d6103b4366004611af1565b6109ae565b6102956103c7366004611b33565b8051602081830181018051600e8252928201919093012091525481565b61040b7f000000000000000000000000000000000000000000000000000000000000000081565b6040516001600160a01b039091168152602001610282565b61032d6109e6565b6102f2610439366004611a34565b610a06565b60065460ff16610276565b610451610a55565b6040516102829190611be4565b61029561046c366004611c48565b6001600160a01b031660009081526020819052604090205490565b6102956305f5e10081565b61032d610b2e565b6102766104a8366004611af1565b610b4e565b6102ab610b79565b61029560075481565b610295600081565b61032d6104d4366004611c48565b610b88565b61029560095481565b610295600b5481565b61032d6104f9366004611caf565b610d72565b61032d61050c366004611a93565b610fd2565b61032d61051f366004611af1565b611094565b6102956101f481565b610295600c5481565b61032d610544366004611a34565b6110b9565b610295610557366004611d1b565b6001600160a01b03918216600090815260016020908152604080832093909416825291909152205490565b61029560085481565b610593611303565b604080519687526020870195909552938501929092526060840152608083015260a082015260c001610282565b61029560008051602061211783398151915281565b60006001600160e01b03198216637965db0b60e01b148061060657506301ffc9a760e01b6001600160e01b03198316145b92915050565b60606003805461061b90611d45565b80601f016020809104026020016040519081016040528092919081815260200182805461064790611d45565b80156106945780601f1061066957610100808354040283529160200191610694565b820191906000526020600020905b81548152906001019060200180831161067757829003601f168201915b5050505050905090565b600080612710600b54846106b29190611d95565b6106bc9190611dac565b905060006106ca8285611dce565b6007549091506106e282670de0b6b3a7640000611d95565b6106ec9190611dac565b925050915091565b60405162461bcd60e51b8152602060048201526016602482015275424c53463a206e6f6e2d7472616e7366657261626c6560501b60448201526000906064015b60405180910390fd5b600080516020612117833981519152610755816113bc565b6101f4831115801561076957506101f48211155b6107a45760405162461bcd60e51b815260206004820152600c60248201526b08ccaca40e8dede40d0d2ced60a31b6044820152606401610734565b600b839055600c82905560408051848152602081018490527f5c6323bf1c2d7aaea2c091a4751c1c87af7f2864650c336507a77d0557af37a1910160405180910390a1505050565b6107f46113c6565b6107fc6113f4565b6298968081101561083f5760405162461bcd60e51b815260206004820152600d60248201526c42656c6f77206d696e696d756d60981b6044820152606401610734565b6000612710600b54836108529190611d95565b61085c9190611dac565b9050600061086a8284611dce565b9050600060075482670de0b6b3a76400006108859190611d95565b61088f9190611dac565b9050600081116108cd5760405162461bcd60e51b8152602060048201526009602482015268151bdbc81cdb585b1b60ba1b6044820152606401610734565b6109026001600160a01b037f00000000000000000000000000000000000000000000000000000000000000001633308761141a565b61090c3382611450565b60075460408051868152602081018490529081019190915233907f5ad333a6d56a7ddb1e78d9ecb8047e9dafcb890a41a227ede8d950259a1f0f75906060015b60405180910390a250505061098060017f9b779b17422d0df92223018b32b4d1fa46e071723d6817e2486d003becc55f0055565b50565b60008281526005602052604090206001015461099e816113bc565b6109a8838361148a565b50505050565b6001600160a01b03811633146109d75760405163334bd91960e11b815260040160405180910390fd5b6109e1828261151e565b505050565b6000805160206121178339815191526109fe816113bc565b61098061158b565b6000806000670de0b6b3a764000060075485610a229190611d95565b610a2c9190611dac565b9050612710600c5482610a3f9190611d95565b610a499190611dac565b91506106ec8282611dce565b6060600d805480602002602001604051908101604052809291908181526020016000905b82821015610b25578382906000526020600020018054610a9890611d45565b80601f0160208091040260200160405190810160405280929190818152602001828054610ac490611d45565b8015610b115780601f10610ae657610100808354040283529160200191610b11565b820191906000526020600020905b815481529060010190602001808311610af457829003601f168201915b505050505081526020019060010190610a79565b50505050905090565b600080516020612117833981519152610b46816113bc565b6109806115dd565b60009182526005602090815260408084206001600160a01b0393909316845291905290205460ff1690565b60606004805461061b90611d45565b600080516020612117833981519152610ba0816113bc565b6001600160a01b038216610bea5760405162461bcd60e51b8152602060048201526011602482015270125b9d985b1a59081c9958da5c1a595b9d607a1b6044820152606401610734565b6000670de0b6b3a7640000600754610c0160025490565b610c0b9190611d95565b610c159190611dac565b6040516370a0823160e01b81523060048201529091506000906001600160a01b037f000000000000000000000000000000000000000000000000000000000000000016906370a0823190602401602060405180830381865afa158015610c7f573d6000803e3d6000fd5b505050506040513d601f19601f82011682018060405250810190610ca39190611de1565b9050818111610ce65760405162461bcd60e51b815260206004820152600f60248201526e4e6f20737572706c7573206665657360881b6044820152606401610734565b6000610cf28383611dce565b9050610d286001600160a01b037f000000000000000000000000000000000000000000000000000000000000000016868361161a565b846001600160a01b03167f9dc46f23cfb5ddcad0ae7ea2be38d47fec07bb9382ec7e564efc69e036dd66ce82604051610d6391815260200190565b60405180910390a25050505050565b7f68e79a7bf1e0bc45d0a330c573bc367f9cf464fd326078812f301165fbda4ef1610d9c816113bc565b838015801590610dab57508083145b610de95760405162461bcd60e51b815260206004820152600f60248201526e098cadccee8d040dad2e6dac2e8c6d608b1b6044820152606401610734565b6000805b82811015610e2357858582818110610e0757610e07611dfa565b9050602002013582610e199190611e10565b9150600101610ded565b508061271014610e6c5760405162461bcd60e51b81526020600482015260146024820152735765696768747320213d2031303030302062707360601b6044820152606401610734565b60005b600d54811015610ec057600e600d8281548110610e8e57610e8e611dfa565b90600052602060002001604051610ea59190611e23565b90815260405190819003602001902060009055600101610e6f565b50610ecd600d6000611925565b60005b82811015610f8457600d888883818110610eec57610eec611dfa565b9050602002810190610efe9190611e99565b82546001810184556000938452602090932090920191610f1e9183611f30565b50858582818110610f3157610f31611dfa565b90506020020135600e898984818110610f4c57610f4c611dfa565b9050602002810190610f5e9190611e99565b604051610f6c929190611ff1565b90815260405190819003602001902055600101610ed0565b5042600a8190556040517f38827e4d68c9ec6e2d5a4f77421782f5b53820cdf678eb670265c99e71c8bd9791610fc1918a918a918a918a9161205c565b60405180910390a150505050505050565b7f68e79a7bf1e0bc45d0a330c573bc367f9cf464fd326078812f301165fbda4ef1610ffc816113bc565b6000831161103e5760405162461bcd60e51b815260206004820152600f60248201526e04e4156206d757374206265203e203608c1b6044820152606401610734565b6007839055600882905542600981905560405184917f4a7e8371416dd0c85cd9eb775560608929438aca1e3b356f39b7868aa76dc8079161108791868252602082015260400190565b60405180910390a2505050565b6000828152600560205260409020600101546110af816113bc565b6109a8838361151e565b6110c16113c6565b6110c96113f4565b600081116111075760405162461bcd60e51b815260206004820152600b60248201526a0416d6f756e74203d3d20360ac1b6044820152606401610734565b3360009081526020819052604090205481111561115d5760405162461bcd60e51b8152602060048201526014602482015273496e73756666696369656e742062616c616e636560601b6044820152606401610734565b6000670de0b6b3a7640000600754836111769190611d95565b6111809190611dac565b90506000612710600c54836111959190611d95565b61119f9190611dac565b905060006111ad8284611dce565b6040516370a0823160e01b815230600482015290915081906001600160a01b037f000000000000000000000000000000000000000000000000000000000000000016906370a0823190602401602060405180830381865afa158015611216573d6000803e3d6000fd5b505050506040513d601f19601f8201168201806040525081019061123a9190611de1565b10156112815760405162461bcd60e51b8152602060048201526016602482015275496e73756666696369656e74206c697175696469747960501b6044820152606401610734565b61128b338561164f565b6112bf6001600160a01b037f000000000000000000000000000000000000000000000000000000000000000016338361161a565b60075460408051868152602081018490529081019190915233907f484c40561359f3e3b8be9101897f8680aa82fbe1df9fd9038e0dbc62840326469060600161094c565b60008060008060008060075461131860025490565b600854600954600a546040516370a0823160e01b81523060048201527f00000000000000000000000000000000000000000000000000000000000000006001600160a01b0316906370a0823190602401602060405180830381865afa158015611385573d6000803e3d6000fd5b505050506040513d601f19601f820116820180604052508101906113a99190611de1565b949b939a50919850965094509092509050565b6109808133611685565b6113ce6116be565b60027f9b779b17422d0df92223018b32b4d1fa46e071723d6817e2486d003becc55f0055565b60065460ff16156114185760405163d93c066560e01b815260040160405180910390fd5b565b611428848484846001611700565b6109a857604051635274afe760e01b81526001600160a01b0385166004820152602401610734565b6001600160a01b03821661147a5760405163ec442f0560e01b815260006004820152602401610734565b61148660008383611772565b5050565b60006114968383610b4e565b6115165760008381526005602090815260408083206001600160a01b03861684529091529020805460ff191660011790556114ce3390565b6001600160a01b0316826001600160a01b0316847f2f8788117e7eff1d82e926ec794901d17c78024a50270940304540a733656f0d60405160405180910390a4506001610606565b506000610606565b600061152a8383610b4e565b156115165760008381526005602090815260408083206001600160a01b0386168085529252808320805460ff1916905551339286917ff6391f5c32d9c69d2a47ea670b442974b53935d1edc7fd64eb21e047a839171b9190a4506001610606565b61159361189c565b6006805460ff191690557f5db9ee0a495bf2e6ff9c91a7834c1ba4fdd244a5e8aa4e537bd38aeae4b073aa335b6040516001600160a01b03909116815260200160405180910390a1565b6115e56113f4565b6006805460ff191660011790557f62e78cea01bee320cd4e420270b5ea74000d11b0c9f74754ebdbfc544b05a2586115c03390565b61162783838360016118bf565b6109e157604051635274afe760e01b81526001600160a01b0384166004820152602401610734565b6001600160a01b03821661167957604051634b637e8f60e11b815260006004820152602401610734565b61148682600083611772565b61168f8282610b4e565b6114865760405163e2517d3f60e01b81526001600160a01b038216600482015260248101839052604401610734565b7f9b779b17422d0df92223018b32b4d1fa46e071723d6817e2486d003becc55f005460020361141857604051633ee5aeb560e01b815260040160405180910390fd5b6040516323b872dd60e01b60008181526001600160a01b038781166004528616602452604485905291602083606481808c5af192506001600051148316611760578383151615611753573d6000823e3d81fd5b6000883b113d1516831692505b60405250600060605295945050505050565b6001600160a01b03831661179d5780600260008282546117929190611e10565b9091555061180f9050565b6001600160a01b038316600090815260208190526040902054818110156117f05760405163391434e360e21b81526001600160a01b03851660048201526024810182905260448101839052606401610734565b6001600160a01b03841660009081526020819052604090209082900390555b6001600160a01b03821661182b5760028054829003905561184a565b6001600160a01b03821660009081526020819052604090208054820190555b816001600160a01b0316836001600160a01b03167fddf252ad1be2c89b69c2b068fc378daa952ba7f163c4a11628f55a4df523b3ef8360405161188f91815260200190565b60405180910390a3505050565b60065460ff1661141857604051638dfc202b60e01b815260040160405180910390fd5b60405163a9059cbb60e01b60008181526001600160a01b038616600452602485905291602083604481808b5af19250600160005114831661191957838315161561190c573d6000823e3d81fd5b6000873b113d1516831692505b60405250949350505050565b508054600082559060005260206000209081019061098091905b8082111561195c5760006119538282611960565b5060010161193f565b5090565b50805461196c90611d45565b6000825580601f1061197c575050565b601f01602090049060005260206000209081019061098091905b8082111561195c5760008155600101611996565b6000602082840312156119bc57600080fd5b81356001600160e01b0319811681146119d457600080fd5b9392505050565b6000815180845260005b81811015611a01576020818501810151868301820152016119e5565b506000602082860101526020601f19601f83011685010191505092915050565b6020815260006119d460208301846119db565b600060208284031215611a4657600080fd5b5035919050565b80356001600160a01b0381168114611a6457600080fd5b919050565b60008060408385031215611a7c57600080fd5b611a8583611a4d565b946020939093013593505050565b60008060408385031215611aa657600080fd5b50508035926020909101359150565b600080600060608486031215611aca57600080fd5b611ad384611a4d565b9250611ae160208501611a4d565b9150604084013590509250925092565b60008060408385031215611b0457600080fd5b82359150611b1460208401611a4d565b90509250929050565b634e487b7160e01b600052604160045260246000fd5b600060208284031215611b4557600080fd5b813567ffffffffffffffff80821115611b5d57600080fd5b818401915084601f830112611b7157600080fd5b813581811115611b8357611b83611b1d565b604051601f8201601f19908116603f01168101908382118183101715611bab57611bab611b1d565b81604052828152876020848701011115611bc457600080fd5b826020860160208301376000928101602001929092525095945050505050565b600060208083016020845280855180835260408601915060408160051b87010192506020870160005b82811015611c3b57603f19888603018452611c298583516119db565b94509285019290850190600101611c0d565b5092979650505050505050565b600060208284031215611c5a57600080fd5b6119d482611a4d565b60008083601f840112611c7557600080fd5b50813567ffffffffffffffff811115611c8d57600080fd5b6020830191508360208260051b8501011115611ca857600080fd5b9250929050565b60008060008060408587031215611cc557600080fd5b843567ffffffffffffffff80821115611cdd57600080fd5b611ce988838901611c63565b90965094506020870135915080821115611d0257600080fd5b50611d0f87828801611c63565b95989497509550505050565b60008060408385031215611d2e57600080fd5b611d3783611a4d565b9150611b1460208401611a4d565b600181811c90821680611d5957607f821691505b602082108103611d7957634e487b7160e01b600052602260045260246000fd5b50919050565b634e487b7160e01b600052601160045260246000fd5b808202811582820484141761060657610606611d7f565b600082611dc957634e487b7160e01b600052601260045260246000fd5b500490565b8181038181111561060657610606611d7f565b600060208284031215611df357600080fd5b5051919050565b634e487b7160e01b600052603260045260246000fd5b8082018082111561060657610606611d7f565b6000808354611e3181611d45565b60018281168015611e495760018114611e5e57611e8d565b60ff1984168752821515830287019450611e8d565b8760005260208060002060005b85811015611e845781548a820152908401908201611e6b565b50505082870194505b50929695505050505050565b6000808335601e19843603018112611eb057600080fd5b83018035915067ffffffffffffffff821115611ecb57600080fd5b602001915036819003821315611ca857600080fd5b601f8211156109e1576000816000526020600020601f850160051c81016020861015611f095750805b601f850160051c820191505b81811015611f2857828155600101611f15565b505050505050565b67ffffffffffffffff831115611f4857611f48611b1d565b611f5c83611f568354611d45565b83611ee0565b6000601f841160018114611f905760008515611f785750838201355b600019600387901b1c1916600186901b178355611fea565b600083815260209020601f19861690835b82811015611fc15786850135825560209485019460019092019101611fa1565b5086821015611fde5760001960f88860031b161c19848701351681555b505060018560011b0183555b5050505050565b8183823760009101908152919050565b81835281816020850137506000828201602090810191909152601f909101601f19169091010190565b81835260006001600160fb1b0383111561204357600080fd5b8260051b80836020870137939093016020019392505050565b6060808252810185905260006080600587901b8301810190830188835b898110156120ed57858403607f190183528135368c9003601e1901811261209f57600080fd5b8b01602081810191359067ffffffffffffffff8211156120be57600080fd5b8136038313156120cd57600080fd5b6120d8878385612001565b96509485019493909301925050600101612079565b505050828103602084015261210381868861202a565b915050826040830152969550505050505056fe241ecf16d79d0f8dbfb92cbc07fe17840425976cf0667f022fe9877caa831b08a2646970667358221220fc72cd43d9113203909061a39d0482f0c63098baa201f662d0e571786e05f37664736f6c63430008180033",
  "linkReferences": {},
  "deployedLinkReferences": {}
}